:100000000C942A000C94C9000C94C9000C94C900EB
:100010000C94C9000C94C9000C94C9000C94C9003C
:100020000C94C9000C94C9000C94C9000C94C9002C
:100030000C94C9000C94C9000C94C9000C94C9001C
:100040000C94C9000C94C9000C94C9000C94C9000C
:100050000C94C90011241FBECFE5D8E0DEBFCDBF90
:0C0060000E94BF000C94A500F894FFCF94
:10006C00DC01CB01880F991FAA1FBB1F880F991F9A
:10007C00AA1FBB1F9C01AD01220F331F441F551F2C
:10008C00220F331F441F551F60E074E284EF90E091
:10009C000E945C00DA01C9010197A109B10989B973
:0C00AC00892F9A2FAB2FBB2780BD089531
:1000B800A1E21A2EAA1BBB1BFD010DC0AA1FBB1F64
:1000C800EE1FFF1FA217B307E407F50720F0A21BD6
:1000D800B30BE40BF50B661F771F881F991F1A9443
:1000E80069F760957095809590959B01AC01BD016D
:0400F800CF01089597
:1000FC0088E40E94920085E60E9492008CE60E94A1
:10010C0092008CE60E9492008FE60E9492000E9460
:08011C00C4000E949200089546
:1001240020E030E002C02F5F3F4F9BB1929596953F
:1001340096959370C1F3283893E13907A1F390E0C1
:060144009DB98CB908957D
:10014A00EC010E94CE000E94CD00CE010E94CF0099
:06015A00CE010E94CB0063
:100160000E94B90060E875E280E090E00E943600ED
:020170000895F0
:0C01720086E880BD88E18AB91BB80895BA
:0A017E000E94B0000E947E00FFCF37
:0A0188005F9BFECF8CB19DB108957E
:040192000C940000C9
:040196000E9434008F
:02019A000895C6
:02019C000895C4
:02019E000895C2
:00000001FF
