:100000000C942A000C94AA010C94AA010C94AA0145
:100010000C94AA010C94AA010C94AA010C94AA01B4
:100020000C94AA010C94AA010C94AA010C94AA01A4
:100030000C94AA010C94AA010C94AA010C94AA0194
:100040000C94AA010C94AA010C94AA010C94AA0184
:100050000C94AA0111241FBECFE5D8E0DEBFCDBFAE
:0C0060000E94A0010C948B01F894FFCFCB
:10006C004423B9F1413009F06BC0813089F028F09C
:10007C008230C9F0833011F108952AB381E090E009
:10008C0002C0880F991F6A95E2F7822B8ABB0895EC
:10009C0027B381E090E002C0880F991F6A95E2F7C0
:1000AC00822B87BB089524B381E090E002C0880FB7
:1000BC00991F6A95E2F7822B84BB089521B381E0E6
:1000CC0090E002C0880F991F6A95E2F7822B81BBE2
:1000DC000895813091F028F08230D9F0833029F1E5
:1000EC0008952AB381E090E002C0880F991F6A95A9
:1000FC00E2F7809582238ABB089527B381E090E0D4
:10010C0002C0880F991F6A95E2F78095822387BBFE
:10011C00089524B381E090E002C0880F991F6A957E
:10012C00E2F78095822384BB089521B381E090E0AF
:10013C0002C0880F991F6A95E2F78095822381BBD4
:02014C00089514
:10014E00CF93DF9300D00F92CDB7DEB719821A820C
:10015E001B828B8180688B838B818F7B8B838B81C2
:10016E008F7E8B838B818F7D8B838B81877F8B8320
:10017E008B8182608B838B8184608B838A818B7F62
:10018E008A838B818E7F8B838A8180618A838A8129
:10019E008F778A838A8188608A838A818F7B8A831C
:1001AE008A818F7D8A8389818D7F89838A818F7DE4
:1001BE008A838B8180BD8A818AB989818BB90F90A0
:0A01CE000F900F90DF91CF9108957C
:1001D800813089F028F08230C9F0833011F1089518
:1001E8002BB381E090E002C0880F991F6A95E2F76F
:1001F80082278BBB089528B381E090E002C0880F66
:10020800991F6A95E2F7822788BB089525B381E094
:1002180090E002C0880F991F6A95E2F7822785BB94
:10022800089522B381E090E002C0880F991F6A9573
:08023800E2F7822782BB089562
:10024000DC01CB01880F991FAA1FBB1F880F991FC4
:10025000AA1FBB1F9C01AD01220F331F441F551F56
:10026000220F331F441F551F60E074E284EF90E0BB
:100270000E944601DA01C9010197A109B10989B9B2
:0C028000892F9A2FAB2FBB2780BD08955B
:10028C00A1E21A2EAA1BBB1BFD010DC0AA1FBB1F8E
:10029C00EE1FFF1FA217B307E407F50720F0A21B00
:1002AC00B30BE40BF50B661F771F881F991F1A946D
:1002BC0069F760957095809590959B01AC01BD0197
:0402CC00CF010895C1
:1002D0000E94A501813481F467E080E00E94EC0077
:1002E00082E60E9496012FEF83ED90E3215080403B
:0A02F0009040E1F700C000000895FF
:1002FA000E94A70060E875E280E090E00E94200179
:0C030A0041E067E080E00E9436000895AA
:10031600EC010E94AF010E94AE01CE010E94B00125
:06032600CE010E94AC01B3
:10032C0090E09DB98CB98BB182958695869583703A
:04033C00D1F308955C
:0A0340000E947D010E946801FDCFBC
:0A034A005F9BFECF8CB19DB10895BA
:040354000C94000005
:040358000E943400CB
:02035C00089502
:02035E00089500
:020360000895FE
:00000001FF
